{
  "contractName": "Adoption",
  "abi": [
    {
      "constant": true,
      "inputs": [],
      "name": "getAdopters",
      "outputs": [
        {
          "name": "",
          "type": "address[16]"
        }
      ],
      "payable": false,
      "stateMutability": "view",
      "type": "function"
    },
    {
      "constant": true,
      "inputs": [
        {
          "name": "",
          "type": "uint256"
        }
      ],
      "name": "adopters",
      "outputs": [
        {
          "name": "",
          "type": "address"
        }
      ],
      "payable": false,
      "stateMutability": "view",
      "type": "function"
    },
    {
      "constant": false,
      "inputs": [
        {
          "name": "petId",
          "type": "uint256"
        }
      ],
      "name": "adopt",
      "outputs": [
        {
          "name": "",
          "type": "uint256"
        }
      ],
      "payable": false,
      "stateMutability": "nonpayable",
      "type": "function"
    },
    {
      "inputs": [],
      "payable": false,
      "stateMutability": "nonpayable",
      "type": "constructor"
    }
  ],
  "bytecode": "0x6060604052341561000f57600080fd5b60008090505b601081101561007a576000808260108110151561002e57fe5b0160006101000a81548173ffffffffffffffffffffffffffffffffffffffff021916908373ffffffffffffffffffffffffffffffffffffffff1602179055508080600101915050610015565b506102dd8061008a6000396000f300606060405260043610610057576000357c0100000000000000000000000000000000000000000000000000000000900463ffffffff1680633de4eb171461005c57806343ae80d3146100ad5780638588b2c514610110575b600080fd5b341561006757600080fd5b61006f610147565b6040518082601060200280838360005b8381101561009a57808201518184015260208101905061007f565b5050505090500191505060405180910390f35b34156100b857600080fd5b6100ce60048080359060200190919050506101c8565b604051808273ffffffffffffffffffffffffffffffffffffffff1673ffffffffffffffffffffffffffffffffffffffff16815260200191505060405180910390f35b341561011b57600080fd5b61013160048080359060200190919050506101fd565b6040518082815260200191505060405180910390f35b61014f610272565b60006010806020026040519081016040528092919082601080156101be576020028201915b8160009054906101000a900473ffffffffffffffffffffffffffffffffffffffff1673ffffffffffffffffffffffffffffffffffffffff1681526020019060010190808311610174575b5050505050905090565b6000816010811015156101d757fe5b016000915054906101000a900473ffffffffffffffffffffffffffffffffffffffff1681565b60008082101580156102105750600f8211155b151561021b57600080fd5b3360008360108110151561022b57fe5b0160006101000a81548173ffffffffffffffffffffffffffffffffffffffff021916908373ffffffffffffffffffffffffffffffffffffffff160217905550819050919050565b610200604051908101604052806010905b600073ffffffffffffffffffffffffffffffffffffffff1681526020019060019003908161028357905050905600a165627a7a72305820b1f3dab4f82b09d38d02206bc887ee1f2213f092b281ffd2a8dcdb1a644cdad00029",
  "source": "pragma solidity ^0.4.4;\n\ncontract Adoption {\n    address[16] public adopters;\n\n\n    function Adoption() public {\n        for (uint i=0; i < adopters.length; i++) {\n            adopters[i] = 0x0000000000000000000000000000000000000000;\n        }\n    }\n    // Adopting a pet\n    function adopt(uint petId) public returns (uint) {\n        require(petId >= 0 && petId <= 15);\n\n        adopters[petId] = msg.sender;\n\n        return petId;\n    }\n\n    // Retrieving the adopters\n    function getAdopters() constant public returns (address[16]) {\n         return adopters;\n    }\n}",
  "sourcePath": "/Users/faeezshaikh/git/pet-shop-tutorial/contracts/Adoption.sol",
  "compiler": {
    "name": "solc",
    "version": "0.4.18+commit.9cf6e910.Emscripten.clang"
  },
  "schemaVersion": "1.0.1",
  "updatedAt": "2017-11-12T01:10:39.604Z"
}